:020000040800F2
:100000000000022099020008E13D0008FD67000899
:10001000E13D0008E13D0008E13D0008000000006E
:10002000000000000000000000000000E13D0008AA
:10003000E13D000800000000E13D0008E13D00084E
:10004000E13D0008E13D0008E13D0008E13D000818
:10005000E13D0008E13D0008E13D0008E13D000808
:10006000E13D0008E13D0008E13D0008E13D0008F8
:10007000E13D0008E13D0008E13D0008E13D0008E8
:10008000E13D0008E13D0008E13D0008E13D0008D8
:10009000E13D0008E13D0008E13D0008E13D0008C8
:1000A000E13D0008E13D0008E13D0008E13D0008B8
:1000B000E13D0008E13D0008E13D0008E13D0008A8
:1000C000E13D0008E13D0008E13D0008E13D000898
:1000D000E13D0008E13D0008E13D0008E13D000888
:1000E000E13D0008E13D000800000000E13D00089E
:1000F000E13D0008E13D0008E13D0008E13D000868
:10010000E13D0008E13D0008E13D0008E13D000857
:10011000E13D0008E13D0008E13D0008E13D000847
:10012000E13D0008E13D0008E13D0008E13D000837
:10013000E13D0008E13D0008E13D0008E13D000827
:1001400000000000000000000000000000000000AF
:10015000E13D0008E13D0008E13D0008E13D000807
:10016000E13D0008E13D0008E13D0008E13D0008F7
:10017000E13D0008E13D0008E13D0008000000000D
:1001800000000000E13D0008E13D0008E13D0008FD
:10019000E13D0008E13D0008E13D0008E13D0008C7
:1001A000E13D0008E13D0008E13D0008E13D0008B7
:1001B000E13D0008E13D0008E13D0008E13D0008A7
:1001C000E13D0008E13D0008E13D0008E13D000897
:1001D000E13D0008E13D0008E13D0008E13D000887
:1001E000E13D0008E13D0008E13D0008E13D000877
:1001F000E13D0008E13D0008E13D0008E13D000867
:10020000E13D0008E13D0008E13D0008E13D000856
:10021000E13D0008E13D0008E13D0008E13D000846
:10022000E13D0008E13D0008E13D0008000000005C
:10023000E13D0008E13D000800000000E13D00084C
:10024000E13D0008E13D0008E13D0008E13D000816
:10025000E13D0008E13D0008E13D0008E13D000806
:10026000E13D0008E13D0008E13D0008E13D0008F6
:10027000E13D0008E13D0008E13D0008E13D0008E6
:10028000E13D0008E13D0008E13D000800000000FC
:0802900000000000E13D000840
:1002980003F0A5FD0E480F490022814201D004C099
:1002A800FBE70D480D490E4A814202D008CA08C032
:1002B800FAE70C484FF47001026842EA0102026052
:1002C800BFF34F8FBFF36F8F02F026FC00DE0000F4
:1002D8000000002004000020000000200000002092
:1002E80008DC000888ED00E048F27F42D0F888106A
:1002F800C0F21E028B184DF68362C4F21B32A3FBB8
:10030800022C40F60012C0F23D02934201D20022B4
:1003180010E04FEADC42A2F1020C40F2FC739C456B
:1003280084BF09207047013240F6FE731340B1FBC9
:10033800F3F1520880B56F46C0F8901047F20400F8
:10034800C5F20020016BC904FCD4016B8904F9D4FF
:10035800016840F2FF339943114301600C2080BDCE
:1003680080B56F4647F2080240F2FF53C5F20022FB
:10037800C0F24003D2F830C043EA0C031363D36AD7
:100388009B04FCD41060132060F31F215160D16AD4
:1003980011F0450F03D0480712D5002080BD4FF05B
:1003A800FF339BB1D16A013B11F0450FF9D011F031
:1003B80004004FF0010282EA9000EFD1002BEDD04B
:1003C800C8074FF0040008BF0C2080BD012080BD85
:1003D800F0B503AF4DF8048DADF5007D0C468046B1
:1003E80068464FF400711D46164605F033FFE26972
:1003F80006F14000A16A2369012B17D1AC006D46B4
:1004080002EB54220A44294604F0AFFEC0B20C287D
:1004180020D104F4FE70285830F0704025D001280F
:100428001DD04FF6F771C0F6FF710FE06C006D46F6
:1004380002EB54220A44294604F097FEC0B20C2865
:1004480008D104F4FF704FF6F771285A884205D195
:100458000E200BE088F80100002007E001D90D20EC
:1004680004E0C8F80400172000E0122088F8000013
:100478000DF5007D5DF8048BF0BDF0B503AF2DE9F7
:10048800000FADF5017D01AC0E4682464FF40071B8
:1004980020469B46914605F0DDFED7F8088006F118
:1004A80040002146424604F060FEC0B20C280FD13D
:1004B8000025605D80B1661959460B22304604F06C
:1004C80023FFA0B12035B5F5007FF2D1162004E056
:1004D8008AF80500002000E006208AF804000120C0
:1004E800CAF800000DF5017DBDE8000FF0BD96F8D3
:1004F8000BB0B9F1000FF189348AF28AB6F818E026
:1005080005D0B6F814C0738B43EA0C4000E0708B3A
:1005180000900AF12003D6F81C90B6E80110A3E871
:1005280001104FF03E0C0CEA41008AF81F00C1F39D
:1005380045108AF81E00C80A8AF81D0004F01F003A
:1005480001218AF82BB0C0FA51F0CAE903858AF86C
:100558001C00C4F34310C0FA51F08AF81B000A20AB
:1005680000EB54248AF81A400CEA42048AF819402D
:10057800C2F34514D20A8AF817200EF01F02C2FAF5
:1005880051F200EB5E208AF81620CEF34312C2FA2D
:1005980051F18AF814008AF81510B0783188009A59
:1005A800987000208AF81840CAE90129198097E74D
:1005B800F0B503AF2DE90007421800295CD04AF6D0
:1005C8005F1E0021C0F6000E064633468C4616F91B
:1005D800011BB1F1FF3FCDB21FDC5E7805F01F01B2
:1005E800E02D06F03F0611D39C78F02D04F03F046F
:1005F80044EA86160ED3DC7801F0070104F03F04C4
:1006080044EA86141E1D44EA814506E046EA81153F
:100618009E1C02E046EA0135DE1CF11AA5F1090329
:100628006144052B02D29642CFD121E0202DFAD089
:10063800802D25D32B0A1F2B06DC6BB1162B1FD15F
:10064800B5F5B45F1CD1EEE7202B0BD0302B17D1BA
:10065800B5F5405F14D1E6E7EBB21EF80330DB07CF
:100668000ED0E0E7EBB21EF803309B0708D5DAE7B7
:100678004FF0000C00215FE0002106464FF0000C0F
:10068800964259D04AF65F1EC0F6000E914612F9FE
:10069800015DB5F1FF3F25DC4A4612F8024D63B211
:1006A80013F1400F11DA4A4612F8034D4FFA84F855
:1006B80018F1400F0CDA4A4612F8044D04F0070A04
:1006C80008F03F0444EA8A1804E004F01F0305E038
:1006D80004F00F0803F03F0343EA881305F03F04D2
:1006E80044EA8315A5F10903052B02D29642CDD120
:1006F80022E0202DFAD0802D1CD32B0A1F2B06DCDC
:100708006BB1162B16D1B5F5B45F13D1EEE7202BDC
:100718000BD0302B08BFB5F5405F0BD1E6E7EBB245
:100728001EF80330DB0705D0E0E7EBB21EF8033014
:100738009B07DBD4891B49446044A1EB0C01BDE84D
:100748000007F0BDB0B502AFADF52E6D04F0D9FDD0
:10075800044604F0D2FD40F20200C2F2000005781F
:100768000DB901210170E00708BF04F0C8FD002D94
:1007780041F0358104F0C5FD044604F0BEFD40F2A9
:100788000100C2F2000005780DB901210170E007EF
:1007980008BF04F0B4FD002D41F021810DF5A060E3
:1007A80006221030119044F60400C5F60200816854
:1007B80062F30201816001688904FCD54FF440416D
:1007C800416141698904FCD544F2004BC5F6020B2E
:1007D800DBF8000440F48070CBF80004DBF8000478
:1007E800C005FBD547F6400A40F600010322022067
:1007F8000023C0F27D1AC2F6AF71BAFBF2F6B1FB64
:10080800F6F505FB1616B342A8BF3346C8BF104617
:1008180001320C2AF1D1802BC8BF0C20402881F06E
:10082800E380002800F09A80BAFBF0F3A3F5F412F5
:10083800A2F5906649F68172C0F2D502964281F01F
:10084800D680DBF82C2040F6001448F28045C0F230
:100858003D0422F00202CBF82C20DBF82C20C0F259
:100868001E05AE4201D2042606E0A3F57416A6F5CD
:100878001066A64204D2082622F00C02324301E098
:1008880042F00C02CBF82C201128DBF8282022F4A7
:100898007C7242EA0012CBF8282081F0AB80B1FBD1
:1008A800F3F4DBF830004EF2001E621E62F308001B
:1008B800CBF83000C0F2F55EDBF82C0004FB03E255
:1008C800012620F00100CBF82C0043F68939DBF82B
:1008D8003000C5F2E6594CF2FF1C66F34F20561E55
:1008E800CBF83000C0F6EB3CA6FB0925DBF82C0062
:1008F800764540F48030CBF82C004FF4FE004FEAE8
:100908005568DBF8305000EB08404FEA104060F3C0
:10091800164504FB03C0CBF83050A0FB0925DBF8D3
:100928002C2042F40032CBF82C2021BFAE0E4FF021
:10093800FE42DBF8305002EB066221BF120E62F372
:100948001E65CBF83050DBF82C2021BF42F4802202
:10095800CBF82C200CF10105A84201D203F0EAF9EA
:10096800DBF80000C00701F04B80DBF8000010F056
:10097800180F41F0478004FB03F0B0FBF8F4B0FB1C
:10098800F6F342081392DBF8742042F00102CBF828
:100998007420DBF874209207FBD50131884201F2FC
:1009A800348013986044A0FB0901880E01280ED0FA
:1009B800022809D0002801F02080C11E032909D28D
:1009C80004204FF0090C10E04FF0080C0DE04FF038
:1009D800000C0AE0811F4FF400704FF00F0C06293D
:1009E80038BF082038BF4FF00A0C90FAA0F01399CE
:1009F800B0FA80F021FA00F84545C1F00980A8F165
:100A08000100109300EB0E017346A1FB09124FEA97
:100A18005801714538BF4FEA5803520E012A0CD0CD
:100A2800022A06D0002A00F0E8874FF004090526BC
:100A380006E04FF00209042602E04FF00109002603
:100A480099FAA9F2B2FA82F228FA02F5AE45C0F094
:100A5800C887052E42460E9408BF0A46B8F1020F11
:100A68001292FFF47BAF18440F96B0FBF3F4012CFD
:100A78000DD0022C08D0002C00F0BF87E01E032800
:100A880008D2042205230DE0022204230AE00122F1
:100A9800002307E0A01F10220723062838BF0822DA
:100AA80038BF062392FAA2F0B0FA80F028FA00F6CE
:100AB800B645C0F09687072B09D0062B04D04046D0
:100AC800052B08BF084604E04FEA980001E04FEA0A
:100AD800D800012CCDE90C0C0FD0022C09D0002C29
:100AE80000F08B87E01E03280BD204214FF0500C36
:100AF80011E002214FF0400C0DE001214FF0000CF5
:100B080009E0A01F4FF0700C1021062838BF4FF0E5
:100B1800600C38BF082191FAA1F0B0FA80F028FAE9
:100B280000F08645C0F05D87CDE90A5907AD012C74
:100B380043C50FD0022C09D0002C00F05E87E01EC0
:100B480003280BD24FF00409502111E04FF002099D
:100B580040210DE04FF00109002109E0A01F70219C
:100B68004FF01009062838BF602138BF4FF0080938
:100B780099FAA9F0B0FA80F028FA00F5AE45C0F06D
:100B8800308741F680500692C0F22C40804503D849
:100B9800109C0022002013E043F60130C0F65800F4
:100BA800804503D2109C0120102209E04EF241003A
:100BB8002022C0F606308045109C38BF1022022043
:100BC800024302F5C06642F20002C5F20022166036
:100BD800166806F007068642FAD1DBF8000040F0F6
:100BE8008000CBF80000DBF80000C005FBD5DBF87F
:100BF800000040F48050CBF80000DBF800008004CF
:100C0800FBD5DBF810006FF39F40CBF81000DBF842
:100C1800000020F4A02000F58030CBF80000DBF8BD
:100C280000008003FBD5DBF82800022262F30100F4
:100C3800CBF82800DBF8000040F08070CBF800000B
:100C4800DBF800008001FBD5DBF8180040F67F7662
:100C58000D9AB04342EA0C021044CBF81800DBF8B6
:100C6800180010F4706FFAD1DBF81C0026460F9AB2
:100C780020F4EE6040EA021040EA0320CBF81C00A2
:100C8800DBF8200020F070000843CBF82000DBF8E8
:100C98004C00032120F04050CBF84C00DBF810004A
:100CA80020F40040CBF81000DBF8100061F30200DC
:100CB800CBF81000DBF8100000F038001828F9D144
:100CC800DBF80000C00540F1A686DBF8F4004FF61B
:100CD800FC722C46CFF6FE7240F00200CBF8F4000E
:100CE80040F22040C5F60000016811400131016062
:100CF8000168C905FCD504F004FB054604F0FDFABB
:100D0800DBF8E00040F00100CBF8E000E80708BF9E
:100D180004F0F5FA04F0F5FA054604F0EEFADBF80B
:100D2800880040F00100CBF88800DBF8880020F04C
:100D38000100CBF88800E80708BF04F0E0FA04F0E7
:100D4800E0FA054604F0D9FADBF8E00040F00400C8
:100D5800CBF8E000E80708BF04F0D1FA04F0D1FAB4
:100D6800054604F0CAFADBF8880040F00400CBF826
:100D78008800DBF8880020F00400CBF88800E8073A
:100D880008BF04F0BCFA04F0BCFA054604F0B5FA52
:100D9800DBF8E00040F00800CBF8E000E80708BF07
:100DA80004F0ADFA04F0ADFA054604F0A6FADBF853
:100DB800880040F00800CBF88800DBF8880020F0B5
:100DC8000800CBF88800E80708BF04F098FA04F098
:100DD80098FA054604F091FADBF8E00040F01000BC
:100DE800CBF8E000E80708BF04F089FA04F089FAB4
:100DF800054604F082FADBF8880040F01000CBF8D2
:100E08008800DBF8880020F01000CBF88800E8079D
:100E180008BF04F074FA4EF21000CEF20000016828
:100E280021F004010160089801218DF8FE00069860
:100E38008DF8FD000B988DF8FC000C983C901298EA
:100E4800139A2891CDE93A40079839900998389033
:100E58000A980E9CCDE93D22CDE9368000203490D9
:100E6800329030902E902C90CDE9296022902090DD
:100E780049F20000C0F2D030CDE924124FF4FA4212
:100E8800CDE91C10CDE9161040F60010CDE91A1274
:100E980046F60042C0F23D00C0F2DC22CDE9141053
:100EA80040A8CDE92614CDE91E1ACDE918124FF451
:100EB80080618DF8FF9005F0CDF940F6000340F60B
:100EC8000446C5F60203C5F60206586820F48050A9
:100ED8005860596A0C2060F3134159621A6802215C
:100EE80061F319621A60326822F004023260F26912
:100EF80060F30B22F261D3F8002461F30512C3F802
:100F080000245A6822F480725A605A6A60F3030215
:100F18005A621A6861F311421A605A6822F4007220
:100F28005A605A6A60F307125A621A6861F3934268
:100F38001A605A6822F480625A605A6A60F30B2277
:100F48005A621A6861F315521A605A6822F40062EC
:100F58005A605A6A60F30F325A62186861F3975000
:100F6800186004F0CEF9054604F0C7F9DBF8D400A0
:100F780040F48030CBF8D400E80708BF04F0BFF98C
:100F880004F0BFF9054604F0B8F9DBF87C0040F43A
:100F98008030CBF87C00DBF87C0020F48030CBF884
:100FA8007C00E80708BF04F0AAF9DBF84C00C0038E
:100FB8003FF5D4AC41F67F2148F65932C0F206011C
:100FC8006018C0F24F120231C0098C42A0FB022007
:100FD80003D24FF4003120460FE00009811E40F291
:100FE800FC72914200F21587411C40F6FE700840E1
:100FF8004908B4FBF0F001F5003147F2000640F271
:10100800FF5AC5F200264FF000097160C0F2400A8D
:10101800316821F003013160CDF890054FF0807000
:10102800CDF8940502208DF880050DF5A0603830C4
:10103800109011980021CDF88C854FF000081030E1
:10104800CDF888458DF898150F90306840F003006A
:101058003060B06B40EA0A00B063706B8004FCD467
:101068004FF48050C6F80890F060706B10F0840F51
:1010780002D0410711D56CE10221706B10F0840F8A
:1010880004D10131012900F06481F6E7002900F05C
:10109800608110F0040140F05C81C00740F0598184
:1010A800B06B40EA0A00B063706B8004FCD44FF464
:1010B800D570B06041F20810F060706B10F0450F09
:1010C80002D0410711D544E14FF0FF31002900F06B
:1010D8004081706B013910F0450FF7D0002900F0FE
:1010E800388110F0040140F03481C00740F03181AC
:1010F8007069C0B2AA2840F02C81BDF89405050497
:101108002846372103F007FFC0B20C281BD1B06B6B
:1011180040EA0A00B063706B8004FCD40020C4F27B
:10112800020000F18770B06041F22910F060716B25
:1011380011F0450F11D0480700F10B81C8074FF097
:10114800040008BF0C2000F00701042940F0FE80CD
:101158007469B4F1FF3FD3DC13E04FF0FF32002A8B
:1011680000F0F780716B013A11F0450FF7D001F0EC
:1011780004030120002A80EA9300E4D0002BDDD08C
:10118800E1E7600040F1E58000200221FFF7E8F880
:10119800C0B20C2840F0DD80D6F814C0B369F569F8
:1011A800326AB06B40EA0A00B063706B8004FCD40A
:1011B80041F20310C6F80890F060706B10F0450F0C
:1011C80002D0410711D5C4E04FF0FF31002900F0EB
:1011D800C080706B013910F0450FF7D0002900F07E
:1011E800B88010F0040140F0B480C00740F0B1802E
:1011F80071694FF6FF700E9121EA00000921CDE9CF
:101208000A5315460D90CDF830C0FFF7A9F8C0B2C3
:101218000C2840F09E80706907210990B0690890F9
:10122800F0690790306A06900D9803F074FE0E99E5
:10123800C0B2B0FA80F2B1F5803F4FF0000138BF7C
:1012480001215209114202D10C2840F082800E98E7
:10125800010C0DF6D8000D9103F028FF9DF8D80871
:10126800012876D0DDF828C028BADDF830E00590EE
:101278009CFA8CF00B9A04909EFA8EF0039010BAA8
:101288000190DDF8E00802901198039BDDF8E4185E
:101298000360019B4360049B8360059BC3600F98B8
:1012A800069BCDF834150360079B4360089B836059
:1012B800099BC3600298CDF8300510980991402128
:1012C800CDF80055CDF804C5CDF80825CDF80CE5C6
:1012D80004F0DFFE9DF8975501200D9A8DF88005E2
:1012E8000E982946CDF878051046ADF89425CDF826
:1012F8007C453DB1012D40F08F85099901F480218D
:101308000D09490C062203F045FEC0B20C2820D175
:10131800706BC004FCD4706B8004F9D4706820F43E
:101328004040284470600DF5A060FEF7DDFFC0B2B4
:101338000C280ED10DF5A06003F03EFEC0B20C28BB
:1013480007D10DF5A06003F037FEC0B20C2800F0FD
:101358004B821398322108F1010803F092FFB8F18B
:10136800030F7FF472AE46F608010DF6D800C0F6FA
:101378000001B82200F0B6FD0DF5006E9DF8E458A6
:101388009EED360A0DF5006E2846DEED370A01F0AF
:10139800DFF840F200000122C2F20000BFF35F8FC5
:1013A800D0E84F1FC0E8432F002BF9D10029BFF325
:1013B8005F8F40F0148303F0A4FF064603F09DFFFF
:1013C800DBF8E80040F00050CBF8E800F00708BF71
:1013D80003F095FF03F095FF064603F08EFFDBF858
:1013E800900040F00050CBF89000DBF8900020F01F
:1013F8000050CBF89000F00708BF03F080FF47F2D9
:1014080000424EF6E171C4F20002CEF6E1711068B6
:10141800084040F0161040F480501060D06B20F067
:101428000700D063106840F001001060D06B20F412
:10143800E020D063106840F48030106003F061FF52
:10144800064603F05AFFDBF8E80040F01000CBF83E
:10145800E800F00708BF03F052FF03F052FF06460A
:1014680003F04BFFDBF8900040F01000CBF8900041
:10147800DBF8900020F01000CBF89000F00708BFD0
:1014880003F03DFF0DF5006E9FEDD60A9EED381A6C
:1014980021EE000ABCEEC00A10EE102A002A3FF422
:1014A8005DAA0020129B5FEA50014FEA3200C01883
:1014B80041F1000100234FF0000A04F0C9FF06467D
:1014C80001284FF00100884688BF30460121B8F155
:1014D800000F04BF0E4606464FF6FF70711E40EB24
:1014E800080041F20004090CC4F2000441EA004972
:1014F800414619F101024AF100031FFA89F0A0627E
:10150800304604F0A5FFB0F5803F4FF4803228BF85
:101518001046002918BF1046B9EB06017AEB0801FE
:1015280009F101024FF0010328BF1846411E50433C
:10153800022289B2E1626168002862F306116160E3
:1015480063613FF40BAA03F0DCFE064603F0D5FE08
:10155800DBF8D80040F00100CBF8D800F00708BF4E
:1015680003F0CDFE002340F60446C4F20203C5F69C
:1015780002061869C00720D01969586A1A6922F04A
:101588001E021A615A6A22F080025A625A6A5A6A1C
:101598001A6922F001021A611A69D207FCD13D22A8
:1015A80049089A60C0091A681A681A6961F34402FE
:1015B8001A61596A60F3C7115962196901204322F7
:1015C80060F38711196140F20001C2F20041D9614C
:1015D80047F20041C4F20001203199614FF40061E3
:1015E8005961D3F8001862F30701C3F800183D21C8
:1015F8009960196819681A69022161F34E321A61F3
:101608001A6961F3CC221A611A6961F311421A61ED
:101618001A6942F480621A611A6922F400721A6126
:101628001A6922F010021A611A691A691A6922F0F5
:1016380008021A611A691A691A6922F004021A6101
:101648001A691A691A6922F002021A611A691A6972
:101658005A6A22F080025A625A6A5A6A1A6942F42D
:1016680080721A611A6922F480221A615A6A22F079
:1016780003025A625A6A22F004025A621A6922F074
:10168800C0721A611A6922F4C0021A61BFF35F8F2F
:101698001A6942F001021A61226840F60003C5F691
:1016A800020342F0010222601A6822F040621A60C6
:1016B800DA6861F39B62DA6041F218024FF40021A4
:1016C800C5F602021160D6F8001421F00801C6F828
:1016D8000014D6F8FC1360F38711C6F8FC1346F61D
:1016E800ED060020C0F60006315CA94204D00130A6
:1016F8000A28F9D1012100E0411C14A800F0C7FB19
:101708000DF5006E4FF000084FF0000A4FF0000B87
:101718009EED368A0DF5006E9EED379A40F6000074
:10172800C5F60200D0F810905FEACB700CD119F41E
:10173800005009D00020315CEAB2914213D0013048
:101748000A28F8D1012014E00AF1010A5FEA0A70B8
:1017580040D15FEAC87088F001084FF0080018BF50
:101768004FF4002031E06FF00801092838BF01214B
:101778000844B0EE480A2168F0EE490A355C21F0C9
:1017880001002060284600F0E3FE206840F00100D8
:1017980020600020315CA94204D001300A28F9D128
:1017A800012100E0411C14A800F071FB1398962158
:1017B80003F067FD0AF1010A5FEA0A7002D04FF0F0
:1017C800000807E04FF00108082041F21801C5F6AB
:1017D8000201086013981921C9F3403B03F051FD39
:1017E8009CE700BF000000450DF6D8090DF5A06183
:1017F80009F10400A02204F084FD0DF5DB604946E0
:10180800A42204F07EFD0DF28C6400206FF0090123
:10181800002204EBC20344F832000132042A596062
:10182800F7D100206FF00901002209EBC20349F843
:1018380032000132042A5960F7D100200DF5B4684E
:10184800CDF8E00508F144000DF5DB61A42204F0B1
:1018580058FD214640466CC96CC091E86C006CC0CC
:1018680008F12005B9E84E0028464EC099E84E0018
:101878004EC00DF6D8064FF40071304604F0EAFC6D
:1018880008F1400A31460022504603F06EFCC0B20F
:101898000C287FF468ADBDF8D60A4AF6552188426F
:1018A80004BF9DF8960A5FEA40607FF45CAD9DF83E
:1018B8009A0A11950E283FF656AD012101FA00F05B
:1018C80045F6400108423FF44EAD0DF5DB664FF496
:1018D8000071DDF8A29A3046DDF89E8A04F0BAFC61
:1018E80050463146424603F040FCC0B20C287FF413
:1018F8003AAD0DF6D8000DF5DB61CDF8409002F059
:10190800CEFA9DF8E00802283FF42DADDDF8DC089A
:101918000D90DDF8E008DDF8D868C1077ED0F18ABF
:10192800CDF83C80CDF830A00A9109B9706A0A90C8
:10193800307C0DF6D80809904FF40071F0890890B2
:101948004046358E04F086FC0F98414642190C98A3
:101958000E9203F00AFCC0B20C2801BFDDF8D808CB
:1019680045F25221C4F2611188427FF4FCACDDF8E3
:10197800BC0A47F27221C6F24111884201BFDDF864
:10198800D40A0021CAF6552188427FF4ECAC707B5A
:1019980006F147010B900DF2CC600B22DDF8C08AEE
:1019A800DDF8C49AF56AB6F80EA004F029F90A9889
:1019B800C646DDE90821012600FB0123B8F1FF3006
:1019C800A9F1020118BF012011F1030F4FF0000126
:1019D80038BF01210E9AC8464FEA124C4CE001F07C
:1019E800A3F8272001F0A5F81E2001F0A2F83E2058
:1019F80001F09FF8202001F09CF8282001F099F8C8
:101A080001F09BF8322001F094F8342001F091F8AD
:101A18002A2001F08EF8332001F08BF8B6F80B106D
:101A2800B1F5007F7FF49FACB6F8112040F2FF11AA
:101A3800CDF83C80CDF830A0F58A01EB421196F83C
:101A48001080B6F80EA04FEA51290E9205B9756AB2
:101A5800727B47210B9210F0FE0F08BF2B210DF26D
:101A6800CC6031440B2204F0CBF805FB08A5002616
:101A78000021002005EB09030D9ACDF8B826109A2D
:101A88000A93CDF8B0360F9BCDF8AC26CDF8A83622
:101A98000DF2CC630E9AADF8A42604F13002CDF80D
:101AA800B4A6ADF8A6C61095CDF8A0560D96CDF8FB
:101AB8009C6660CB60C21E889B78168093700B9AD8
:101AC8008DF8C7260022CDF88C064FF0FF30CDF8F0
:101AD800C826CDF89886CDF89416CDF890E6202A39
:101AE8003FF441AC0DF5B4618B581144496813B902
:101AF8000B1D3FF438AC013008320A31EFD104280D
:101B080080F0BF810DF5B462002142F8301002EB7D
:101B1800C0006FF0030141600DF6D80002F062F9D1
:101B28009DF8D9889DF8D808012804D101200321FF
:101B38004FF0000E81E00DF6D8000DF2CC66811C46
:101B48000A22304604F05CF80DF5DB6031460130BE
:101B58000A228DF8D88604F053F80D98E8B30F9848
:101B68000DF6D8090A990DF5B465DDF840A001EB2A
:101B780000081AF104001099504608BF08460B994E
:101B8800023800FB01846618B44288BF2646A64284
:101B980011D00DF5DB634846294601220094FEF773
:101BA8006CFCDDF8D8089DF8DC18012808BF162958
:101BB8003AD10134EBE70DF28C6148462A46534688
:101BC800FEF706FCDDF8DCA89DF8D8081728D0D069
:101BD800012006214FF0000E2FE00E9840F2FF1171
:101BE8000DF6D8090DF5B4650DF5DB6880B201EB8B
:101BF8004010DDE90F12541804EB5026A64298BF96
:101C08002646A642E4D04846294600224346009488
:101C1800FEF733FCDDF8D8089DF8DC18012808BF6A
:101C2800162901D10134ECE79DF803E9BDF8DEC8B7
:101C38009DF8DD88DDF8E0280E920DF5B4640022E9
:101C48002423E5580833442B05F10A05B5FA85F530
:101C58004FEA551542EA0502F3D1D2073FF483ABA8
:101C680000287FF480AB0DF5B46400262023002201
:101C780004EBC2056D6A0A3508BF1046B5FA85F54A
:101C88000132083B4FEA551546EA0506F0D1F2073E
:101C98003FF469AB5FFA88F2120242EA0C4202EBA7
:101CA800010800210DF5B4620A44136A1BB9526A8F
:101CB80042453FF458AB08312029F3D15FEACE61A1
:101CC8003FF551AB042880F0DC801199002241F8DF
:101CD800302001EBC000C0F804800E98B0F5806F8A
:101CE8003FF641AB0F9800250A99CDF84480084487
:101CF80006900B984FEA402A4FF480600790002026
:101D0800CDE908000E980999884200F088800B9860
:101D180000283EF423AE0998401B824519D8B0FB31
:101D2800FAF60024119B0DF6D8000DF28C610DF522
:101D3800B462FEF74DFB9DF8D80817287FF413AB63
:101D480001345544DDF8DC08B4421190EAD309980F
:101D5800401B504580F092800D990029119901F19E
:101D680004010AD00029DDE9102108BF11460B9AA9
:101D78000239069B01FB02340BE0119A00291099E5
:101D8800A2F10202DDE90A6318BF02FB03610F9AA0
:101D980054180DF6D809460A4FF40071484604F065
:101DA80059FA0C98A219494603F0DFF9C0B20C2879
:101DB8007FF4D9AA099A079811466FF35F21C1F5F4
:101DC8000076B04238BF06460E98801AB04238BF37
:101DD800064608983418B4F5806F49D8089A40A880
:101DE80010440DF6D8021144324603F009FF099B4E
:101DF80000220E999B1942F10000C91A099372EB4F
:101E0800000041D30798801BCDE907047FF47AAF1F
:101E180006E02F2001F0DCFF0F2000F08AFE089C6E
:101E280000200DF5B46101440A6A12B94A6A4245B4
:101E380003D008302028F4D102E06FF0090048628E
:101E480000200DF5B461095829B90DF5B4610144B4
:101E58004A68043203D008302028F2D102E06FF03B
:101E6800090048600DF6D80040A92246FFF782BA5B
:101E7800089821464FF4806200F052FE392000F0A5
:101E880058FE042100F05DFE2B2001F0A1FFF0B503
:101E980003AF2DE9000BD0F8A85041F218060C4604
:101EA800C5F602064FF40028C8212846C6F8008067
:101EB80003F0E7F94FF0080928468221C6F8009098
:101EC80003F0DFF92846AA21C6F8008003F0D9F903
:101ED800013CF1D12846FA21BDE8000BBDE8F040ED
:101EE80003F0CFB9F0B503AF2DE9000F81B02DEDA8
:101EF800068B88B091468846073A4FF0000138BFF4
:101F08000A46B9F1000F00F09F80B6EE001A08F1FA
:101F1800030121F003014DF6481CA1EB08019FEDD8
:101F2800C30A9FEDC32A0023C0F6000C18F903600A
:101F3800002E19D4CE1AB60701D081E00833934297
:101F480008D208EB030558F803606D682E4316F0B5
:101F5800803FF3D04B4574D218F90360002E70D43B
:101F680001339945F8D16FE0F6B21CF80650042DFC
:101F780016D0032D04D0022D40F0D682013356E04E
:101F88005D1C4D4580F0D08218F80550E02E17D022
:101F9800ED2E20D16EB216F1610F00F3C58245E037
:101FA8005D1C4D4580F0C08218F80550F02E0CD00D
:101FB800F42E1AD16EB216F1710F00F3B5821EE03D
:101FC80005F0E006A02E31D0AEE2A5F19006302E45
:101FD80080F0AA8213E0A6F1E1040C2C1BD26EB2A9
:101FE80016F1400F80F2A08220E0F13E0324022E79
:101FF80000F29B826EB216F1400F80F296829E1C10
:102008004E4580F0918218F9066016F1410F00F3F1
:102018008B8203330BE006F0FE060324EE2E40F01D
:1020280084826EB216F1400F80F27F8202334B45F4
:1020380080F07A8218F9036016F1410F00F3748278
:1020480001334B45FFF472AFB6EE00AA0090A8F139
:1020580001009FED768A9FED769A4FF0000A049072
:10206800032000250190D14528D3A9EB0A0208EBEB
:102078000A04072A0AD800216AB1605C0A280CD031
:1020880001318A42F9D10020114607E00A20214691
:1020980001F054FE02E0002000E00120C0070CD04F
:1020A80001EB0A0000F1010A4845DCD2605C0A280D
:1020B800D9D10023D346514606E0CA46A94500F0C7
:1020C800FC810123AB464946481B08EB050410D0A8
:1020D800049A515C0A290CD1461E0CD0A119023869
:1020E800002211F8011CC9B20D29214618BF11465A
:1020F80004E0064606E000214FF0FF3000291CBF2F
:1021080006460C46002C00F0D88100250593721B6A
:102118006319072A0AD800216AB1585C23280CD011
:1021280001318A42F9D10020114607E023201946DF
:1021380001F004FE02E0002000E00120C00708D002
:102148002944B14202D2605C232803D04D1CAE4220
:10215800DDD2314620465D46FEF72AFA41B30446F1
:102168000E464FF0000BA6EB0B0204EB0B03072AFD
:102178000AD800216AB1585C3D280CD001318A4246
:10218800F9D10020114607E03D20194601F0D6FD9F
:1021980002E0002000E00120C00709D0594401F105
:1021A800010BB14202D2605C3D2806D05E45DAD20E
:1021B800059800283FF457AF7FE12046FEF7F8F96D
:1021C800CDE9020104EB0B00A6EB0B01FEF7F0F9D9
:1021D8000646039805380428EAD80C46DFE800F0DC
:1021E8000444032A5F00E3E7029846F6C001C0F6FC
:1021F8000001052203F088F80028D9D1E01E06283E
:10220800D6D8DFE810F00800AC006700ED002A011E
:102218000700A500CCE74AF62B113046C0F60001AE
:10222800032203F071F80028C2D137E100007042A0
:102238009A99593F029846F6D401C0F6000108223F
:1022480003F062F80028B3D106A83146224600F010
:1022580007FF9DF818009DED070A002818BFB0EE8B
:10226800480AB0EE408AA3E7029846F6CE01C0F6C7
:102278000001062203F048F800287FF499AF06A869
:102288003146224600F0ECFE9DF818009DED070A45
:10229800002818BFB0EE4A0AB0EE40AA88E70298B4
:1022A80046F6C501C0F60001092203F02DF8002802
:1022B8007FF47EAF06A83146224600F0D1FE9DF895
:1022C80018009DED070A002818BFB0EE490AB0EEC5
:1022D800409A6DE74AF6FF013046C0F60001052234
:1022E80003F012F8002800F0D7804AF6171130469C
:1022F800C0F60001052203F007F8002800F0D4809A
:102308004AF61C113046C0F60001052202F0FCFF17
:10231800002800F0C7804AF62E113046C0F60001AA
:10232800052202F0F1FF002800F0B8804AF64F11AC
:102338003046C0F60001052202F0E6FF002800F052
:102348008A804AF65A113046C0F60001052240E05C
:102358004AF639113046C0F60001092295E0306886
:1023680046F26B11C7F26C01884200F09B8030681E
:1023780047F27341C7F26121884200F097803068C4
:1023880046F67271C6F27351884200F08780306851
:1023980046F26751C7F2612188425CD0306846F244
:1023A8006311C6F67231884255D0306846F66C71B2
:1023B800C6F6677188424ED0306846F27911C6F683
:1023C8007A11884277D04AF621113046C0F60001CA
:1023D800042202F099FF0028019808BF092066E04E
:1023E8004AF604113046C0F60001062202F08CFFBE
:1023F800002855D04AF60A113046C0F600010622D8
:1024080002F082FF00284BD04AF625113046C0F66C
:102418000001062202F078FF002847D04AF633115F
:102428003046C0F60001062202F06EFFB0B34AF64D
:1024380049113046C0F60001062202F065FFC0B31C
:102448004AF654113046C0F60001062202F05CFF3D
:1024580000287FF4ADAE082029E04AF6F80130469E
:10246800C0F60001072202F04FFFA8B14AF610118A
:102478003046C0F60001072202F046FFA0B14AF636
:1024880042113046C0F60001072202F03DFF002845
:102498007FF48EAE06200AE0002008E0052006E062
:1024A800012004E0032002E0022000E00420019063
:1024B8007EE60720FBE70920F9E7B3EE040A9FED63
:1024C800231AB7EE003A9FED204AB5EE409AF1EE96
:1024D80010FAB0EE412AB5EE40AAC8BFB0EE492ABC
:1024E800F1EE10FAC8BFB0EE4A1AB4EE408AF1EE27
:1024F80010FAB4EE43AAC8BFB0EE480AF1EE10FADB
:10250800B4EE439AC8BFB0EE431AF1EE10FAB4EE37
:10251800448AC8BFB0EE432AF1EE10FAC8BFB0EE45
:10252800440ADDE9000400E0032480ED002A80ED80
:10253800011A80ED020A047308B0BDEC068B01B0E5
:10254800BDE8000FF0BD00BF0000484300000000D8
:10255800F0B503AF2DE9000F81B02DED108B82B0DF
:102568009FEDE51AF6EE009A9FEDE4BAF1EE00CA87
:1025780020EE01CA46F6F80120EE8BDA40F2000898
:10258800F1EE04BA4AF6504AF7EE00DAC0F6000156
:102598000C1D9FEDDBEA9FEDDBFA4FF0000BC5B297
:1025A800C2F20048C4F2AE2A5E460FF21A0000EEEC
:1025B800106A0BF1010BB8EE400A20EE0E0A20EE6D
:1025C8000F8ADFE815F00A00E00081008C00150092
:1025D800ED000001C3002C017C00B0EE480A01F0B8
:1025E8001BFDB0EE409A9FEDC80A38EE000A73E072
:1025F800B2EE041A4CF6CD41CCF6CC419FEDC32A7D
:10260800DFEDC3EAF0EE6E8A60EE01AAFCEEEAFAAC
:102618001FEE900AA0FB0112D10801EB8101A0EB8B
:10262800410909F1010000EE109AB0F10A0118BF42
:10263800014601EE101AB8EE400AC807B8EE411A72
:1026480008BFF0EE6D8A20EE020A21EE021A9FED15
:10265800B12A80EE2B0A81EE2B1A30EE028A31EE77
:1026680002AAB0EE480A01F0BFFDB0EE409AB0EE03
:10267800480A01F0D1FCB0EE408AB0EE4A0A01F0F7
:10268800B3FD5FEAC97008BFF0EE6DEA2EEE899AD5
:10269800B8EE6F2A2EEE888AF0EE49FA7AEEC2AAD0
:1026A80058EE80FAB0EE4A0A01F0B6FCB0EE481ACD
:1026B8000AEEAF9A18EE801A0AEE818ACFE114ED7D
:1026C800019A94ED008ACAE1B0EE480A01F0A4FC30
:1026D800B0EE409A38EE080A01F09EFC5DE0B0EEDC
:1026E800480A01F099FCB0EE409AB0EE480A01F0B1
:1026F8007BFDB0EE40AA38EE080A01F075FDB9EE90
:10270800041A60EE01FAB0EE080AB3EE001A28EED9
:10271800000A69EE01AAB2EE0A1A4AEE01FA01F0BD
:1027280063FD30EE000A29EE2A1A3FEEC0AA28EE11
:102738002C0A29EE018A01F057FDB3EE011A3AEE90
:10274800400A88EE019A80EE018A88E130EE001A8C
:10275800BFEE002A31EE021A9FEDE42A20EE028A2B
:10276800B0EEC11AB0EE480A3DEEC1AA01F03CFD38
:10277800B0EE409AB0EE480A01F04EFC2AEE008A0C
:102788002AEE099A6BE1B0EE480A01F045FCB0EE7A
:10279800409AB0EE480A01F027FDB0EE408A5EE1AB
:1027A80028EE2B0A01F020FDB0EE40AAB0EE480A50
:1027B80001F01AFD2AEE009AB0EE480A01F02CFC4E
:1027C8002AEE008A4BE19FEDCA1A20EE018AB2EE8A
:1027D800080A88EE000A01F01FFCB0EE409AB0EE3D
:1027E800480A01F001FD10EE102A22F00041D00F36
:1027F800514551D3B0EE40AAB1F1FF4F00F2098123
:1028080047F21723C4F2B12399425ED9B2F1FF3FD0
:1028180040F382809FEDB71A20EE01AAF9E0B3EEEB
:102828000E1A20EE010A10EE100AB0EE401A010E40
:102838004A2917D89FEDAB1AB0F17E5F12D36FF01B
:102848007E01B0EE401A01EBD05100FA01F25202BB
:102858001FBF0022CFF6807242FA01F1084018BF6C
:1028680001EE100A30EE410A9FED9FAAB4EE690A04
:10287800B0EE480AF1EE10FA48BFB0EE6DAA01F0CA
:10288800B3FCB0EE409AB0EE480A01F0C5FB20EE6A
:102898000A8A29EE0A9AE2E047F21822C3F6B162E0
:1028A800914209D941F29252C3F68572914243D8B6
:1028B80080F00101081A4FE0B1F1645F11D9B0EE60
:1028C800402A9FED881A002054E0B2F1FF3F33DC24
:1028D8009FED891A81EE001A8DED001A9DED001A00
:1028E8002AE09FED841A30EE2DAA30EE011A8DED04
:1028F800011A9DED010A8CE000F0FF4400F07F45CD
:102908000000003ADB0FC940920A863FDB0F4940BE
:102918003D0AD73EDB0FC93F9FED771A4FF2B4123D
:102928009FED70AAC4F2CF2281EE001A91428DED7C
:10293800001A9DED001A6CD846F6DC019FED6F2A4F
:10294800C0F6000101EB800090ED001A00EE021ABB
:10295800BDEEC11A11EE100A01EE100A9FED682AA9
:10296800B8EEC11A01EE020A9FED662A21EE021A9C
:1029780030EE412A22EE023A9FED635A9FED634AF8
:1029880003EE054AB0EE425A03EE445AB0EE003A5E
:1029980022EE052A33EE453A82EE032A32EE411A38
:1029A80030EE010A30EE2DAA98B37F280EDD9FED98
:1029B800510AFE282AEE00AA1ED92AEE00AAB0F56E
:1029C800BE7F88BF40F27D10FE3818E010F17E0F00
:1029D80015DA9FED4F0A10F1E50F2AEE00AA0DD87F
:1029E8004FF6B66110F5A57FCFF6FF7198BF084680
:1029F8002AEE00AACC3002E07F3800E066304FF0C3
:102A08007E5101EBC05000F0FF4000EE100A2AEEA4
:102A180000AA29EE090A29EE000A29EE000A29EE81
:102A2800009A28EE2C0A01F0DFFB30EE000A3AEE9D
:102A3800400A30EE49AAB0EE480A01F0EDFAB0EECD
:102A4800409AB0EE480A01F0CFFB20EE0A0A9FED4B
:102A5800312A29EE0A1A80EE028A81EE029AB0EE35
:102A68004D0A09EE0C0AB5EE400AF1EE10FA0BD940
:102A7800B4EE4B0AF1EE10FA08DA30EE290ABCEE91
:102A8800C00A10EE100A03E0002001E040F6FF70D3
:102A9800B0EE4D0A08EE0C0AB5EE400AF1EE10FA57
:102AA8000CD9B4EE4B0AF1EE10FA09DA30EE290A25
:102AB800BCEEC00A10EE101A090404E0002102E07E
:102AC8000021C0F6FF7108340843BBF5006F48F8D1
:102AD80026007FF469AD02B0BDEC108B01B0BDE8F3
:102AE800000FF0BD00000000EC51383FD253FB410D
:102AF800E4CB96420000007F000080803BAAB83FEC
:102B0800007231BF8EBEBF35155235BB8FAA2A3E23
:102B18000000800C3333834080B56F46FDF712FE0A
:102B280080B56F4600F009F880B56F462B2000F09D
:102B380000F880B56F4600F000F880B56F4602F0E7
:102B4800E7F980B56F46FFF7F8FFF0B503AF2DE959
:102B5800000F85B081460068002800F0C48001F0AD
:102B68003F084AF66021C0F6000140F21C5331F8D4
:102B78001840A4466FF3DF2C9C4500F2FE8001EB61
:102B88004801A3EB0C0209F108054FEAD42A4E8844
:102B98004AF6E221C0F6000101EB0C0E00246FF3A7
:102BA800DF26A6EB0C06A64218BFA24211D0A0420F
:102BB8000DD0B4F5407F00F0F0801EF804102B5DB6
:102BC80001348B42EFD038BFAAF1010A01E0AAF123
:102BD800010A09F1070100254FF0000ECDE9031A9B
:102BE8005144CDF80490029108E05AEA04011EBF4E
:102BF8000199012281F80823002851D003460138A1
:102C0800B3F5407F00F2C0800499C8F120024CF669
:102C1800CD4600EB01090399CCF6CC46CC5CB8F163
:102C2800200124FA02F258BF04FA01F204FA08F16A
:102C380058BF002111EB050B42EB0E0C4FEA5B016C
:102C480041EACC7111EB5C0242F10002A2FB06459D
:102C580025F0030404EB9504121B4FF0CC34891AB9
:102C6800A1FB065201FB04214FEA5C0262F100025B
:102C78004FF0FF3402FB061E6FF00906A5FB061293
:102C880005FB042211EB0B0A0EFB062242EB0C0497
:102C9800B9F5407FA9D2029901F803A00028ADD167
:102CA800BBF10A00DDF80480DDF810B07CF100000B
:102CB8001DD2D8E90001594400EB0B02B2F5407F60
:102CC800104628BF4FF44070C8E900015AB1411EB0
:102CD800B0F5407F5CD84044C07920B90846002947
:102CE800C8F80010F3D105B0BDE8000FF0BD0BF136
:102CF80007014FF0CC390BE052EA0A021CBF01224F
:102D080088F808230139BCF10A0270F10000D0D319
:102D18006A084CF6CD4342EACE72CCF6CC4312EBAD
:102D28005E04AC4644F100046FF0090A7046A4FB47
:102D3800035626F0030505EB9605641B121BA2FB40
:102D4800035402FB09424FEA5E0464F1000404FBE9
:102D5800032E4FF0FF33A5FB0A2405FB034412EBB7
:102D68000C020EFB0A4444EB000AA1F10804B4F576
:102D7800407FC1D208F80120C4E7604640F21C51E8
:102D880040F21C52FFF7CCFE4FF44071FFF7D9FE1A
:102D980008464FF44071FFF7D4FE4FF440704FF4EB
:102DA8004071FFF7CEFEF0B503AF2DE9000F85B0F7
:102DB800024601F03F0E52F808BB00210A26002403
:102DC8004FF0000A04928B4520D0B1F5407F00F007
:102DD800E78042180AEB8A030131127A4FEA430A64
:102DE800CEF12003E4FB062A0AFA03F322FA0EF5D1
:102DF8002B43BEF1200558BF2AFA05F32AFA0EF52F
:102E0800144658BF00252B43DDD034E054EA0A01AC
:102E180000F0C280CEF1200C24FA0EF1BEF120069B
:102E28000AFA0CF241EA020158BF2AFA06F12AFA14
:102E38000EF258BF0022114302D0224659461AE02A
:102E48004FF00A0859462246A2FB08230AEB8A05D6
:102E58000131002E03EB450A22FA0EF40AFA0CF3AC
:102E680043EA04032AFA0EF458BF2AFA06F358BFB5
:102E780000242343E8D043685B1A0133436013F509
:102E8800006F05DC002180F80813C0E9001183E019
:102E98004FF0FF33BEF1200C03FA0EF54FF000049B
:102EA80058BF002558BF03FA0CF36FEA05086FEA0C
:102EB80003098B4539D94FF440738B42C1F54075EE
:102EC800A1EB0B0338BF25460293049B03955D18BD
:102ED8000195ABEB01054FF00A0B0095039BA3424C
:102EE80064D0019B22FA0EF602EA0802BCF1000F38
:102EF8001D5D0AEA090303EB83034FEA4303E2FB80
:102F08000B53CEF120020AFA02F242EA060258BF37
:102F18002AFA0CF2049E9A4632550134029A121982
:102F28002A46DBD12A469A46009C52EA0A0127D053
:102F38000A21012610E01B0618BF80F8086302EA80
:102F480008020AEA0905A2FB012305EB850503EB44
:102F5800450A52EA0A0313D0CEF1200522FA0EF3ED
:102F6800BCF1000F0AFA05F543EA050358BF2AFA2F
:102F78000CF3B4F5407FDED2049D2B550134DEE717
:102F88002246026042B1511EB4F5407F13D8024474
:102F9800D279002A0A46F4D005B0BDE8000FF0BD8A
:102FA8004FF440704FF44071FFF7CBFD08194FF410
:102FB8004071FFF7C6FD08464FF44071FFF7C1FDA9
:102FC80003683BB34268002A24D4122A82BF4FF018
:102FD800FF304FF0FF317047F0B503AF4DF804BD37
:102FE800DAB100F1080E844600200A2400210025E9
:102FF80002E00135AA4213D0A0FB040601EB8101CF
:103008009D4206EB4101F4D21EF80560801941F19A
:103018000001EEE7002000217047844600200021CF
:103028009A420AD20CEB0205561C9E4215F8084F2C
:1030380008BF052C04D0042C0CD85DF804BBF0BDE7
:103048009CF8083333B9002A1CBF15F8012C5FEA35
:10305800C272F2D0013041F100015DF804BBF0BD4D
:10306800F0B503AF2DE9000FADF2546D002A5CD026
:103078000B782D2B18BF2B2B03D1013A00F062825D
:1030880001310024082ACDE90530CDE9071251D3D2
:103098004EF2001B4FF06409C0F2F55B42F2107A61
:1030A8000B4694464FF000081968D3F804E0B1F1D4
:1030B80030304EF1CF3611F146314EF146320143F0
:1030C8003243114311F0803F2DD10A2106EB8605CA
:1030D800A0FB0112000A40EA0660083308FB0BF85F
:1030E800ACF1080C401802EB450242EB162243F6FD
:1030F8000955C1B2C0F30740D6B26943BCF1070F06
:1031080000FB0AF006FB09F650FAA2F006EB811163
:1031180000EB0106E4FB0B683446C5D8BCF1000F90
:1031280000F0AD803446089A08E000214170012182
:1031380000F087BC4FF0000894460B460A20197827
:10314800A1F13006F6B2092E20D808EB8801013328
:10315800BCF1010C4FEA4108E4FB00683446EED1AB
:103168004FF0000C4FF0010A002096460024002181
:1031780009904FF00009BEF1140F80F2E5804FF07E
:10318800000BBAF1000F00F0AB8167E1A2EB0C0570
:103198002E294BD1ACF1010B0133BBF1080F099576
:1031A800CDF810B04DD34EF2001E42F21079C0F2A5
:1031B800F55E1D685968B5F1303A41F1CF3615F121
:1031C800463541F1463145EA0A053143294311F0B4
:1031D800803F3BD10A2006EB8602AAFB00154FEA86
:1031E8001A2040EA0660083308FB0EF8ABF1080B1A
:1031F800401805EB420242EB162243F60955C1B2CC
:10320800C0F307406943D5B2642600FB09F0BBF15F
:10321800070F06FB05F550FAA2F005EB811100EB4C
:103228000106E4FB0E683446C3D80BE000210020F9
:103238002646E34609914FF0000910EB050E36D1FA
:103248004EE12646BBF1000F22D03446099D1846B0
:10325800049A5B444FF00A0E01783039CEB2092E39
:1032680013D808EB88010130BBF1010B4FEA410884
:10327800E4FB0E683446EFD14FF0000B0CE04FF042
:10328800000C4FF0010A089A6EE72646034603E051
:10329800099D4FF0000B049AA2EB0B00089A4142DB
:1032A80009914FEAE17910EB050E00F01981BBF1A5
:1032B800000F3DD0187840F0200065283CD1BBF1C4
:1032C800010A00F00D811C4614F8011F2D2902D0B7
:1032D80008462B2906D1BBF1020A00F0018113F838
:1032E800020F1C463038092800F2FA8004914FF684
:1032F800FF71002500234FF0000B04E00134BAF100
:10330800010A00F0EE8120783038C0B2092800F2B6
:10331800EA81B1EB0B024FF000029A41EEDB03EBBE
:10332800830253000A22EBFB020305468346E5E7C6
:1033380000244FF0010A02E04FF0000A00240021A7
:10334800BEF1140FFFF61BAF079BAEF11300CDE9DA
:10335800031414464FF02F0E19782E2918BF302960
:1033680006D1C1FA5EF10133C9B2401A013CF3D16A
:103378004FF0000B01286DDB08984BF2B369079BEF
:103388004FF6FF72C0F1000ECDF824A0C0F6E05948
:10339800CAF263720A244FF0000A4FF00008197845
:1033A80070463039CEB2092E1AD808EB880110F1D0
:1033B800010E03F101034FEA41084BF10001EAFB5A
:1033C8000468951B79EB080502D3B2460029E6D0BC
:1033D800911B79EB080124D20CEB0E0040422FE040
:1033E80040425646B0F1010C23D001334FF00A0E8B
:1033F8003446604613F8011B3039CEB2092E1BD86B
:1034080008EB8801A0F1010A4FEA4108E4FB0E68C5
:10341800911B79EB080111D3012834465046E9D1B4
:103428000CE0013000F05683CEF10000B0F1010C41
:10343800DBD14FF0000A01E026468246AAEB0C00D9
:1034480004994FF0010BDDF824A00918099103999C
:1034580041EBE079089ABAF1000F41D0D6F18070BB
:103468004FF0000474EB08006FF01B034FF00000EE
:10347800CA4638BF01200999123969F10005C91AED
:1034880075F1FF314FF0000138BF0121084350EAC0
:103498000B005AD0099A0AA85346CDE9006800F0F3
:1034A8001EFB0C9DB5F1FF3FC8BF01241BEA040FAA
:1034B80068D0701C099A48F100015346CDE9000113
:1034C800D2A800F00CFBDDE9D201DDE90A2359405E
:1034D8004240114304BFD4998D4200F0A38255E0C5
:1034E800032A15D00799082A2BD1086844F64E12EA
:1034F8004968C5F6541220F0203021F0203151409F
:1035080044F64962C4F646125040084319D136E0E1
:1035180007998878098841EA00404DF6DF71C0F2C2
:10352800DF01084044F64961C0F24601884226D0CE
:1035380044F24E11C0F24E01884202D19FEDC40AF6
:1035480074E20698012141707BE20998D0F10A00E3
:1035580074EB0A0033DB3046414602F065FD00EEAD
:10356800100A4DF64820C0F60000BAF1000F00F12D
:103578009380099900EB810090ED001A5DE09FEDC2
:10358800B50A53E2002D01D40A984BE20DF5527AA0
:1035980040F20931504602F05DFEDDE907920AF17A
:1035A800080C0021002519F80530A3F130000606A3
:1035B80046D101350139AA42F5D100219CE109998A
:1035C8004DF6C800C0F6000000EBC10050E9141920
:1035D800B9F1000FA9FB06E5A6FB01C00490A8FB02
:1035E8000103414618BF4FF00109B8F1000F18BF99
:1035F800012101EA0901002B18BF0123002D41EA2E
:10360800030118BF012500EB0E03049829434FF06E
:10361800000E1B184EF1000529437FF43BAFDCF187
:1036280080717EEB0301FFF435AF6046194602F066
:10363800FBFC9FED890A01EE100A21EE000A32E038
:10364800561809EB050EC1B2092935D8E94301EB33
:1036580002080024631C210A022998BF0CF8040000
:10366800A04558D009EB0400013E28444178A1F157
:103678003000C4B2092C1C46ECD99E442E29D293A2
:1036880057D1711CAEF10100A1F1020800F1020C42
:10369800002BC34658D115E00999A0EB810090EDA5
:1036A800001A80EE010ADDE90510B1EE401A2D2955
:1036B80008BFB0EE410AC1E12E2B36D10EF1010C44
:1036C800A6F10108B8F1000F36D0B64400201CF866
:1036D8000010302934D101308045F8D1002300266C
:1036E800A3E04FF0000A00206C4260EB030104984D
:1036F8002D281CBF19462C460998089A00190990CC
:10370800BAFA8AF049EB01094FEA501ABEF1140FD0
:10371800FFF635AD18E60EEB0400CAF8003000F1EC
:10372800010E4FF00008002683E000214FF000084A
:10373800AAE04FF000087CE04FF00008002337E0D3
:10374800A8EB000B84440023BBF1080F2BD303F133
:10375800080003460838B3F5407F2CD2DCF8005047
:10376800DCF80410B5F1303441F1CF3615F14635A7
:1037780041F1463125433143294311F0803F1AD1A5
:10378800B0F5407F00F2A0810AEB0300ABF1080B13
:103798000CF1080C4AF80340BBF1070F466003F12F
:1037A8000800D6D8D293BBF1000F01D0184603E029
:1037B8000026E64639E0D2909CF80030A3F13004A8
:1037C800E3B2092B22D800EB0A03454603F10801AE
:1037D80009910CF10108ABF1010A00235E4600EBE8
:1037E800030B19464FEA1B23022B9CBF099B5C5411
:1037F8008A450FD018F80130013EA3F130044B1C64
:103808005FFA84FEBEF1090FE9D904E003465E467B
:10381800E64609E000260CEB01000BF1010300F17C
:10382800010E0DF5527AA846D293A6EB0808CDF8FA
:103838004C8333B1911BB242C0F0438103D10022C3
:1038480014E0002120E0A9F10100002209E000BFF6
:103858000000C07F0000807FF90215500132013955
:1038680004D0445C2E2CFAD0302CF7D09844991A06
:10387800CDF84C83B1F5407FD29181BF4FF44071B0
:10388800D29101208DF85006A6B3734613F8010BA8
:1038980040F0200065282DD1741E22D093F800C076
:1038A800BCF12D0F18BFBCF12B0F03D1B41E1AD0D9
:1038B8000EF10203002000261A78303AD5B2092DFD
:1038C80012D806EB8605B6F5803F03F101034FEAEF
:1038D800450555FA82F2BCBF16461046013CEBD1AD
:1038E80002E0002004E00020BCF12D0F08BF404298
:1038F8004044D390122906D80AEB0100C1F1130104
:10390800083002F015F90DF13C09D2A94FF44372C1
:10391800484602F0F6FC0F980025002800F0818048
:103928001099002011F5A27F7CDBB1F59B7F01DBAC
:10393800FF2577E04AF6FE7B0024C0F6000B01293C
:1039480010DB0FAD132934BF1BF801603C26284655
:103958003146FFF728FA109911F5006F3ADD344423
:103968000129EFDA09F1080A31B1484213282CBFBE
:103978003C251BF8005007E09DF8440004280ED8A9
:103988000125022838BF022548462946FFF7DDF8F9
:103998001099B1F5006F1ADA641B0129E4DB661E81
:1039A80016F17F0F0FDC0FAC6FF07D08A8EB060552
:1039B80020463C2D28BF3C252946FFF7F4F92E4424
:1039C80016F17E0FF2D306F17F00FE2804DD0020F9
:1039D800FF2527E0002524E00FA81821FFF7B5F8F8
:1039E8000F9BE3B1109A002A19D4122A4FD800204D
:1039F8006AB34FF00A0C0021002402E00134A2420D
:103A080026D0A0FB0C0501EB81019C4205EB41018E
:103A1800F4D21AF80450401941F10001EEE706F11A
:103A28007E05002040EAC55000EE100A0598B1EE68
:103A3800401A2D2808BFB0EE410A0698002180EDF3
:103A4800010A01700DF2546DBDE8000FF0BD0021B0
:103A58009A4217D21AF80250541C9C4208BF052DEE
:103A680002D0042D0BD80DE09DF844333BB9002A51
:103A78001EBF524412F8012C5FEAC27202D0013014
:103A880041F10001B0F1807271F100020DD30FAC69
:103A980001212046FFF787F92046FFF791FA06F142
:103AA8008002FE2A3FF793AF0136B0F500034FF0CE
:103AB8007F0271F1000138BF7E2295196FF3DF5044
:103AC800B0E70020FFF72CF84FF440714FF4407234
:103AD800FFF726F8012000210022FFF721F8F0B5B2
:103AE80003AF2DE9000F83B0FF26002186606FF039
:103AF8004006961BC0E9001173F1FF36C0F215812C
:103B0800D7E9026956EA090500F00F81D2F12601CA
:103B18004FF0000575EB0301C0F20881B6FA86F193
:103B2800B9F1000F01F1200C4FF0000A18BFB9FAE3
:103B380089FCBCF1200101914BF21801C0F600018B
:103B480001EB021808F5AB5106FA0CF558BF002531
:103B580009FA0CF9D1F804E04FF4AB5158F8011008
:103B6800A1FB054BEEFB05BA0294CCF1200426FA22
:103B780004F449EA0409019C58BF06FA04F9A1FBB8
:103B880009143F261BEB010B4FF000015AEB040A06
:103B980041F10004EEFB09A4A64366EA0A063EBB0F
:103BA80041F2685ECDF804B058F80EB0ABFB0516CC
:103BB80008EB0E01D64649684FF0000AABFB098BAB
:103BC800E1FB056A002516EB08065AEB0B06DDF843
:103BD80004B045F10005E1FB0965DDF8089019EB33
:103BE80006095BEB050B5EF1000A44F1000401E0F5
:103BF800DDF808906FF0400111F1400E4FF0FF35ED
:103C080045F10006253145F10005891A75EB0301D8
:103C180008DB89EA0E0186EA0B06314302D14FF030
:103C2800FF3182E045F26A21E60FC0F20301263631
:103C3800514306F0070524FA05F5CCEB214101EBC9
:103C4800D47101F13F0818F17E0F1BDA002118F139
:103C5800BD0F6AD36FF07D026FF09D03A2EB0802DF
:103C6800B3EB080325FA02F258BF002202F0010361
:103C78001A44160E18BF01265FEA51034FEA3202B2
:103C8800314650E0B9F102014FF0000E7BF100011E
:103C98004FF0000138BF0121113243F100031C3AF3
:103CA80073F10002C6F120034FF0000238BF012271
:103CB800114005F0030225FA03F3013AB2FA82F241
:103CC80052091140B6F1200258BF05FA02F383EAFF
:103CD800040205FA06F358BF002383EA0A031A43CD
:103CE8004FF6FC73B2FA82F2C0F2FF335209114266
:103CF80018BF1D4005F001014A194FF07F014EF130
:103D0800000656EA526318BF80214144FE290DD8A7
:103D18005FEA56064FEA3202002B22F400024FF007
:103D2800000318BF0022C0E90023816003B0BDE88A
:103D3800000FF0BD80B56F46FEF7FFFEF0B503AF8C
:103D48004DF8048DCB1C5FFA80FC23F003038B42F3
:103D58001FD1A2F1080E00204FF0013340F20018E5
:103D68000CFB03F3C0F201180D580E1876685D407D
:103D7800A8EB05042C4386EA0305A8EB05063543A2
:103D88002C40E44314F0803F0FD108307045EBD944
:103D98000BE0581A0023CE5C664514D001339842D4
:103DA800F9D1A2F1080E7045D6D9824208D00B1875
:103DB800121A00215E5C664504D001318A42F9D1AD
:103DC800002001E00B18012019465DF8048BF0BDB6
:103DD80080B56F46FEF7B1FE80B56F46FEE780B549
:103DE8006F4680BDF0B503AF4DF8048D84B004462E
:103DF8004FF0203049F6054ECDF80B00CDE9010013
:103E080046F6E4000DF104080022C0F600004FF069
:103E1800010CCFF6004E00250023C65C202E32D3BD
:103E2800A6F120011F290CD80E2905D1691E0829E1
:103E380031D2082501221CE00CFA01F111EA0E0F1B
:103E480021D1A6F15B0103291DD37C2E1BD0A6F13D
:103E580061011A2938BF86F02006D10704D0A5F1E0
:103E68000801032919D201E0082D16D208F80560C7
:103E780001350133092BD0D1601C01A90B2201F0B7
:103E8800BFFE002002E0002060700120207004B016
:103E98005DF8048BF0BD0320F6E70220F4E7B0B527
:103EA80002AFB1F8FE214AF655239A422BD191F878
:103EB8000DC0BCF1000F45D0CB8A0C7C4D6A002B9D
:103EC800B1F81320B1F80EE018BF1D4605FB04E356
:103ED800B1F811500C6A002A18BF144640F2FF12BC
:103EE80002EB451203EB522240F6F573A21AB2FB1D
:103EF800FCF29A4211D24DF69A2202210172142143
:103F0800C0F6000206E04DF6AE22022101720E2133
:103F1800C0F60002C0E90021B0BD00234FF6F475D9
:103F2800AA4288BF012309D94D8D3DB14DF688229B
:103F3800022101721221C0F60002EBE70372C0E908
:103F48000012B0BDFFF7F6FEF0B503AF4DF8048DD3
:103F58000446B0F5806F1DDB9FED2D1B51EC100B57
:103F680055EC116B32462B4601F056FC41EC100B18
:103F780040F2FE72944233D932462B4601F04CFC93
:103F880040F6FD32944238BF224641EC100BA2F2B3
:103F9800FE742AE04FF60240CFF6FF70844224DA1E
:103FA8009FED191B51EC100B55EC116B32462B464B
:103FB80001F032FC41EC100B14F5F96F13D84FF2F5
:103FC800704832462B46CFF6FF7814F5396F88BF14
:103FD800A04601F021FC41EC100B08F2927404E0B9
:103FE800A4F2FF3401E004F2C93404F2FF300022E5
:103FF800030551EC100B01F00FFC41EC100B5DF8C0
:10400800048BF0BD00BF00BF00000000000060038B
:10401800000000000000E07FD0B502AF2DED028B5C
:1040280088B010EE104AB0EE408A204602F0A0F8A0
:10403800864641EC100B24F000408C4640F6DB71BC
:10404800C3F64971884214D2B0F1665F62D29FED1F
:10405800640AB0F5000F9FED631A38EE000A28EEE7
:10406800011A38BFB0EE410A8DED040A9DED040A2D
:104078007FE045F2D231C4F27B0188420AD24CF685
:10408800E431C4F21601884215D2002C63D49FEDA6
:10409800520B76E043F2D611C4F2E201884224D2F0
:1040A8004EF6E051C4F2AF01884224D2002C66D407
:1040B8009FED410B51E042A0B4F1FF3FC8BF08306B
:1040C80090ED000B7246634651EC100B01F069FB52
:1040D80041EC100B8DED000B9DF8070080F080007F
:1040E8008DF807009DED000B14E0C00DFE2818D9CF
:1040F80038EE488A3DE02AA0B4F1FF3FC8BF083037
:1041080090ED000B7246634651EC100B01F049FB31
:1041180041EC100B08B0BDEC028BBDE8D04000F0BC
:1041280017BEB0EE480A04A800F02AF904989DEDDD
:10413800060B00F00300DFE800F0022C0318E9E7A3
:104148008DED020B9DF80F0080F080008DF80F00B8
:104158009DED020BDEE79FED1E0B53EC102B704616
:10416800614601F01EFB41EC100B00F061FEB1EE60
:10417800408AB0EE480A08B0BDEC028BD0BD9FED76
:104188000C0B53EC102B7046614601F00AFB41EC16
:10419800100B08B0BDEC028BBDE8D04000F048BE63
:1041A800182D4454FB211940182D4454FB2119C0E3
:1041B800D221337F7CD91240D221337F7CD912C0DF
:1041C800182D4454FB210940182D4454FB2109C0E3
:1041D800182D4454FB21F93F182D4454FB21F9BFF5
:1041E8000000807B00008003D0B502AF2DED028B6C
:1041F80086B010EE104AB0EE408A204601F0B8FFB3
:10420800864641EC100B24F000408C4640F6DB71EA
:10421800C3F6497188420DD2B0F1665F41D29FED75
:10422800560A38EE001AB7EE000A8DED021A9DED17
:10423800021A4EE045F2D231C4F27B01884215D20F
:104248004CF6E331C4F21601884231D946A0B4F1E4
:10425800FF3FC8BF083090ED000B7246634651EC33
:10426800100B01F09EFA41EC100B59E043F2D61105
:10427800C4F2E201884227D24EF6DF51C4F2AF0100
:1042880088422AD932A0B4F1FF3FC8BF083090ED68
:10429800000B7246634651EC100B01F082FA41ECB8
:1042A800100B06B0BDEC028BBDE8D04000F0C0BDDD
:1042B8009FED2B0BB4F1FF3F14DD51EC100B724650
:1042C800634601F05BF813E0C00DFE2819D938EEFB
:1042D800480A06B0BDEC028BD0BD9FED1B0BB4F1B4
:1042E800FF3FEADD53EC102B7046614601F059FAA6
:1042F80041EC100B06B0BDEC028BBDE8D04000F0DD
:1043080027BDB0EE480A02A800F03AF802989DEDE1
:10431800040B00F00300DFE800F008090302E9E7F6
:1043280000F086FDB1EE400AD3E7BAE78DED000B49
:104338009DF8070080F080008DF807009DED000BC8
:10434800D8E700BF00BF00BFD221337F7CD912C09D
:10435800182D4454FB211940182D4454FB2119C031
:10436800182D4454FB21F93F182D4454FB210940D2
:10437800182D4454FB2109C00000807BD4D4D4D428
:10438800F0B503AF2DE9000F81B02DED108BADF521
:10439800287D10EE104A0646204601F0E9FE24F07A
:1043A8000045814640F6DB708846C4F6C950854210
:1043B80063D29FEDF70B4846414653EC102B01F0B2
:1043C8002BFA9FEDF50B53EC102B01F0EAF99FED5A
:1043D800F40B53EC102B01F0E4F9039605460E4656
:1043E80001F00BFF9FEDF00B04462846314653ECD5
:1043F800102B01F09DF99FEDEE0B314617902846E2
:1044080053EC102B01F008FA02460B464846414689
:1044180001F0C7F99FEDE80B80468946284653EC22
:10442800102B314601F0F8F99FEDE50B83461798FC
:104438008A4653EC102B31460028284608BF4FF017
:10444800004401F0B4F90028404649465A4653460C
:1044580018BF6FF0004401F0A4F980468946284649
:10446800314633462A46039E01F06AFE002849EC8D
:10447800108B18BF002400F054BC4FEAD55ABAF18B
:10448800FE0F0AD9484641464A46434600F076FFA1
:1044980041EC100B002400F044BC0DF17009A02180
:1044A80001944846039601F0F4FD44A8A02101F0C8
:1044B800F0FD0DF5D87BA021584601F0EAFD0DF579
:1044C80014785021404601F0C5FE6FF098004AF676
:1044D800AB2100EBD550002680B248436FF0950120
:1044E80001EBD5510291040D04944DF6BC20C0F6A1
:1044F800000050F8240001F052FF41EC100B09EBCA
:10450800C600032E80ED000B4FF0000038BF0120DD
:10451800022E9EBF06440134042EE6D30298A5EB72
:10452800C05001F025FE9FEDA8CB00250B900E9101
:1045380051EC1C0BCDE90F1009EBC5000B9A0E9B33
:1045480090ED000B51EC100B01F066F9DDE90F322C
:1045580001F027F941EC100B0BEBC500032D80EDA2
:10456800000B4FF0000038BF0120022D9CBF05440E
:10457800032DE1D9049803249FED950B9FED96DB5D
:10458800A0EB80009FED88EB9FED8DFB0AEBC0014F
:10459800C000A1F1AE020C92C1F1C502C1F1C60181
:1045A80001F01F01059108F108010791A8F1040124
:1045B8000A91ABF108011191009051EC100B9FED9D
:1045C800888B02F01F029FED88AB9FED89BB069296
:1045D800CDE908100BEBC400002C0D9490ED009B66
:1045E8007AD094A9A246179151EC199B53EC1A2B37
:1045F8001491484601F010F905460E4601F0FDFDFC
:1046080053EC1E2B044628463146CDE9122301F00F
:104618008FF853EC1F2B002828463146CDE9152387
:1046280008BF4FF0004401F0C2F800282846314680
:104638002A46334618BF6FF0004401F081FD002878
:1046480018BF0024204601F0AAFE53EC1B2B83461A
:10465800884601F0E1F80B4614990246484601F0F5
:10466800A0F804460D4601F0C8FDDDE91223064610
:104678002046294601F05CF8814611985A4643467F
:1046880000EBCA0090ED000B51EC100B01F089F81B
:10469800B9F1000F08BF4FF00046DDE9152341ECE2
:1046A800190B2046294601F082F8002820462946A1
:1046B80022462B4618BF6FF0004601F041FD1799BE
:1046C800002818BF0026BAF1010041F8046B1CBF8E
:1046D8008246BAF1000F86D1B0EE490A0C98F0EE86
:1046E800690AFFF731FC58EC105BDDE9083228460F
:1046F800414601F091F8064641EC100BC1F30A500F
:104708000C4640F23241884202D9DDF834A092E0EA
:10471800DDF834A040F2FE31884275D9A0F2FF30AE
:104728004FF6FF73C0F1200C4FF0FF31C0F20F03BA
:10473800C14003FA0CF21143B0F1200923FA00F248
:1047480058BF23FA09F158BF002201EA060E02EA0F
:10475800040353EA0E036ED040F2000EB9F1000FC5
:10476800CFF6F07E0EFA0CF34EFA00F058BF4EFA70
:1047780009F358BF4FF0FF3089196241002C58BF28
:10478800224658BF31461040194040EC101B52E0F9
:1047980083C8C96D305FE43F000000000000384363
:1047A80000000000000038C3000000000000E0C165
:1047B80000000050FB21F9BF63621A61B41051BEBA
:1047C8000000C0FFFFFFDF41000000000000000004
:1047D800000000000000C03F00000000000020C0F2
:1047E800000000000000F03F000000000000703EE4
:1047F80000000000000070C1000000000000F0BFD1
:10480800000000000000E03FB0EE4C0AB4F1FF3FAA
:10481800F0EE6C0A0FDCDDE90F323046214601F07C
:10482800EEFD1FED0B0B002851EC102B1CBF214691
:10483800324641EC102B51EC100B53EC1D2B00F0C1
:10484800EBFF02460B462846414600F0AAFF054604
:104858000E4601F0D2FC53EC1E2B04462846314686
:10486800CDE9132300F064FF53EC1F2B00282846E2
:10487800314608BF4FF00044CDE9152300F097FFFB
:104888000028284631462A46334618BF6FF00044B0
:1048980001F056FC002818BF0024204601F07FFDD7
:1048A80002460B462846314600F068FD804641EC3A
:1048B800190B0C98894600282FDD0A9B94AD059AA0
:1048C8000DF5D87B1CAE53F82A0040FA02F10C44CF
:1048D80001FA02F2801A069A43F82A0040FA02FC0A
:1048E8001794BCF1010F2CDBBAF1000F2CD094A85F
:1048F80000225146036812B16FF07F4202E04BB1CB
:104908004FF08072D21A026001220024043001396B
:104918001BD0EFE700220124F8E794AD0DF5D87B12
:104928001CAE179400F0A3801FED4B0B4046494680
:1049380053EC102B00F0FCFE002840F09E80002075
:1049480038E0CDF848C036E001240C9901290FDB86
:104958004FF6FF700229C0F23F0003D0012907D1AA
:1049680000F580000A9A52F82A10084042F82A00F6
:104978001798BCF1020F00F10100179019D151EC02
:10498800180B42464B4600F0F9FC41EC190B84B970
:10499800B0EE480A8046F0EE680A0C988946FFF7A0
:1049A800D3FA53EC102B4046494600F0E7FC41ECA3
:1049B800190B0220129051EC190BDDE90F3201F0AE
:1049C8001EFD00285CD0AAF10100032811D30021A4
:1049D80055F8203003284FF0000288BF0122042830
:1049E80041EA030124BF801A0228F1D8002940F0C7
:1049F800F0800799002051F804290130002AFAD0E4
:104A080000EB0A04A245BFF4E5AD0AF10105DDF8A3
:104A18001080DDF82CA04DF6BC29C0F6000905EB86
:104A2800080059F8200001F0BAFC0B4641EC190BBC
:104A38000E990246504600F0EFFE06EBC50282EDE5
:104A4800009BDDE90F3200F0ACFE41EC100B0BEBE4
:104A5800C500A54280ED000B4FF0000038BF0120D3
:104A68000544BFF4B7ADA5423FF6B4ADD7E70A9801
:104A780050F82A004FEAE05C33E74FF0020C33E7C6
:104A8800B0EE490A0C98F0EE690A4042FFF75CFA6A
:104A9800B0EE408AF0EE608A9FEDAB0B53EC102B22
:104AA80058EC189B4846414600F042FE10B9DDE933
:104AB800132366E053EC1A2B4846414600F0ACFE3F
:104AC80006468A4601F099FBDDE913230446304681
:104AD800514600F02DFE002808BF4FF00044DDE9E4
:104AE80015233046514600F062FE002830465146F4
:104AF8003246534618BF6FF00044DDF834A001F089
:104B08001FFB002818BF0024204601F048FC53EC86
:104B18001B2B41EC180B00F07FFE02460B46484663
:104B2800414600F03EFE80460E4601F066FBDDF889
:104B38004C900446149B404631464A4600F0F8FD26
:104B4800002808BF4FF00044DDE9152340463146F0
:104B580000F02DFE0028404631464246334618BF35
:104B68006FF0004401F0ECFA149B002818BF0024F1
:104B780045F82A400AF1010A02984A460099084471
:104B88000C9059EC186B3046494600F0D1FD804630
:104B98003046494601F031FB0446B8F1000F08BF22
:104BA8004FF00044DDE915233046494600F0FFFD8B
:104BB80000283046494632464B4618BF6FF000443D
:104BC80001F0BEFA002818BF00240C9845F82A40C6
:104BD80008E00C980A9A52F82A10AAF1010A183823
:104BE8000029F8D09FED560BFFF7AEF959EC1A0BD8
:104BF8000BEBCA0BB0EE408A0DF51478F0EE608A24
:104C08005E465546CDF834A0169058F8250001F0B8
:104C1800C6FB5AEC184B02460B462046514600F09C
:104C2800FBFD169A41EC190B204651464B4600F005
:104C3800F3FD86ED009B41EC180B013D083E681C16
:104C4800E3D10D9D9FED3C8BA946B0EE489AA5EBAC
:104C58000908F0EE689A4DF6C8344046B8F1030FDB
:104C680028BF0320461C0025C0F60004DA46B4EC31
:104C7800020BBAEC021B51EC100B53EC112B00F099
:104C8800CBFD02460B4651EC190B00F08AFD0135AD
:104C980041EC190BAE42EAD144A80D9D00EBC800C7
:104CA800ABF1080BB9F1000F80ED009BA9F10100F1
:104CB8008146CAD144A89FED200B00EBC50494EDB2
:104CC800001B51EC100B53EC112B00F06AFD013D59
:104CD800083C41EC100B6A1CF1D18DED1A0B9DF8C4
:104CE8006F201A9B82F080028DF86F20129E1B9A0B
:104CF800002E1CBF1846114641EC100B1798039E56
:104D080000F007040198B0F1FF3F0ADC8DED180BA5
:104D180064429DF8670080F080008DF867009DED83
:104D2800180B86ED020B34600DF5287DBDEC108B59
:104D380001B0BDE8000FF0BD000000000000000059
:104D4800000000000000F03F00000000000070417B
:104D5800F0B503AF2DE9000F81B056EC104B20469B
:104D680031462246334600F057FD81460D4620461F
:104D780031464A462B4600F04FFD9FED250B8346F2
:104D88008846484653EC102B294600F045FD9FED18
:104D9800220B53EC102B00F004FD02460B4658463C
:104DA800414600F039FD02460B462046314600F0E8
:104DB800F8FC9FED1B0B8A460090484653EC102BDD
:104DC800294600F029FD9FED180B53EC102B00F03D
:104DD800E8FC06460C46484629464A462B4600F05B
:104DE8001BFD02460B465846414600F015FD32466B
:104DF800234600F011FD009A534600F0D2FC01F062
:104E080078F800EE100A01B0BDE8000FF0BD00BF51
:104E1800B2FB6E891011813F77ACCB545555C5BF95
:104E2800A7463B8C87CDC63E74E7CAE2F9002ABF85
:104E3800F0B503AF2DE9000F81B051EC100B02461D
:104E48000B4600F0E9FC9FED280B04460D4653EC99
:104E5800102B00F0E1FC9FED260B53EC102B00F01B
:104E6800A0FC81468A462046294622462B4600F069
:104E7800D3FC9FED210B8346884653EC102B00F0A2
:104E8800CBFC02460B464846514600F08AFC9FED93
:104E98001C0B8A460090204653EC102B294600F044
:104EA800BBFC9FED190B53EC102B00F07AFC064667
:104EB8008946204629465A46434600F0ADFC32460C
:104EC8004B4600F0A9FC024600980B46514600F0FC
:104ED80068FC01F00EF800EE100A01B0BDE8000F02
:104EE800F0BD00BF00BF00BF815E0CFDFFFFDFBF4C
:104EF800000000000000F03F423A05E15355A53F8D
:104F08006950EEE04293F93E271E0FE887C056BF6E
:104F180080B56F46FEE780B56F4647F2080240F25B
:104F2800FF53C5F20022C0F24003D2F830C043EA72
:104F38000C031363D36A9B04FCD41060C8B24FF40B
:104F480080710C2808BF4FF4C071084300F58050E9
:104F58005060D16A11F0450F03D0480712D50020E0
:104F680080BD4FF0FF339BB1D16A013B11F0450F73
:104F7800F9D011F004004FF0010282EA9000EFD15D
:104F8800002BEDD0C8074FF0040008BF0C2080BDEF
:104F9800012080BDB0B502AF0D460004372114468C
:104FA800FFF7B9FFC0B20C2805D128462146BDE855
:104FB800B040FFF7B0BFB0BDF0B503AF2DE9000BAF
:104FC80090B0804640201021FFF7A5FFC0B20C2802
:104FD80065D147F20406C5F200263068306BC0047C
:104FE800FCD4306B8004F9D444F640304021C0F240
:104FF8004C000D223062B8F8940071626321B162EE
:105008000104FFF7C7FFC0B20C2848D1E946402188
:10501800484601F01FF94FF0000E40F20A4C316B80
:10502800880624D411EA0C0F15D1080410D5A9EB71
:105038008E04CEF100050EF1080E0F23F26FE8186A
:105048000F2830D810BA44F82300013B072BF5D1BC
:10505800BEF1100FE3D188070FD4C8060FD4080794
:105068000FD498F8800002280DD1082017E088078F
:105078004FF0050058BF062011E005200FE007207B
:105088000DE000200BE0B9E86E0008F138006EC0B2
:10509800B9E86E006EC099E87E007EC00C2010B0A2
:1050A800BDE8000BF0BD1021FDF74BFDF0B503AFD7
:1050B8004DF804BD82B00D46044608201021FFF7C4
:1050C8002AFFC0B20C2849D128043721FFF723FF53
:1050D800C0B20C2842D147F20405C5F20025286861
:1050E800286BC004FCD4286B8004F9D444F6403003
:1050F8003321C0F24C000026286208206862332061
:10510800A8620020FFF707FFC0B20C2826D140F2A2
:105118000A416A46CDE90066286B830615D4084221
:1051280007D103035EBFEB6F42F826300136022E2B
:10513800F2D181070DD4C1060DD400070DD4DDE9E5
:105148000001C4E9020100200AE0800701D406201A
:1051580004E0052002E0072000E000206070012044
:10516800207002B05DF804BBF0BDF0B503AF2DE9C7
:10517800000F83B08246006800287CD147F20404FF
:105188004FF0FF308846511CCAF800009146C5F21E
:1051980000244FF0000B10468A42029188BF114646
:1051A800019188425FD0484567D19AF88800022863
:1051B8005BD09AF8A000C00707D14FF40070102107
:1051C800FFF7A9FEC0B20C283FD12068206BC004AD
:1051D800FCD4206B8004F9D444F640301121C0F28D
:1051E8004C0020624FF4007060629320A062484631
:1051F800FFF791FEC0B20C2827D10022216B880648
:105208001ED411F4857F11D108040CD508EB0206D1
:105218000023E56FD018B0F5FE7F1FD8F550043392
:10522800202BF6D11A44BBEB522FE7D088071ED4A7
:10523800C8061ED40807DDE90110B2D5002004E035
:1052480088074FF0050058BF0620DAF80010013132
:10525800CAF8001003B0BDE8000FF0BD011D4FF4FF
:105268000072FDF75DFC0C20EFE70820EDE7052054
:10527800EBE70720E9E7FEF75DFD01200121FDF7D7
:1052880060FC41F20022C0F27A02904238BF7047B7
:10529800D0B502AF4DF683624FF0000CC4F21B325A
:1052A8006FF07F4EA0FB0202500D4EF210024843F1
:1052B8004FF47A71CEF20002484300216FF07F4329
:1052C800704538BF0346002918BF73465360C2F8BB
:1052D80008C0146844F0010414601468E403FCD5A1
:1052E8001468C01A61F1000124F0010450EA0103B6
:1052F8001460E3D1BDE8D040704772B6704762B61B
:105308007047EFF310807047002A04BF00207047F1
:10531800F0B503AF2DE9000BA2F1010EC2F1000CAC
:1053280000240B5D055D9D4224D1A6451ED001EBEE
:10533800040800EB040998F8013099F801509D42DF
:1053480018D10CEB0406B31C10D098F8023099F869
:1053580002509D420ED1F31C08D098F8033099F8FA
:1053680003509D4206D10434A242DAD10020BDE8A0
:10537800000BF0BDE81ABDE8000BF0BD80B56F4624
:1053880082B043EC102B8DED000B9DF80730009A8E
:1053980083F080038DF80730019B02B0BDE88040A0
:1053A80000F002B8D4D4D4D4F0B503AF2DE9000F7F
:1053B80040F2000943EC112B41EC100B23F000489C
:1053C80021F00045C8F210094FF0010C05EB090661
:1053D800441E76EB09065FD308EB0906B2EB0C0412
:1053E80076EB090658D3861A964675EB08061C46CE
:1053F80088463FBF864610460C4698464546C8F341
:105408000A5C6FF31F55C4F30A59BCF1000F62D050
:105418006FF31F54B9F1000F00F0828083EA010A8C
:10542800E10041EA5E71EA0041F4000142EA507B82
:105438004FEACE05CC4500F09680ACEB0906402E2D
:1054480080F08F80724202F03F02C2F12003B2F175
:10545800200401FA02FE05FA02F225FA03F343EAF0
:105468000E0358BF05FA04F358BF00221A4325FA61
:1054780006F3C6F1200518BF012201FA05F52B43F2
:10548800B6F1200558BF21FA05F343EA020521FACF
:1054980006F158BF002166E040F2000E4442C7F60C
:1054A800F07E7EEB050408D245F4002141EC100B98
:1054B80051EC100BBDE8000FF0BD54427EEB080420
:1054C80080F0EA8048F4002040EC102B51EC100BDF
:1054D800BDE8000FF0BDB0FA80F2002D02F1200AFD
:1054E80018BFB5FA85FA0AF1350606F03F06B6F197
:1054F800200205FA06FCC6F1200520FA05F545EA62
:105508000C05CAF10C0C58BF00FA02F500FA06F0B7
:1055180058BF00206FF31F54B9F1000F7FF47EAF1E
:10552800BEFA8EF2002C02F1200A18BFB4FA84FAEF
:105538000AF1350606F03F06B6F1200204FA06F92C
:10554800C6F120042EFA04F444EA0904CAF10C094D
:1055580058BF0EFA02F40EFA06FE58BF4FF0000EBE
:105568005CE700210125C4004BF4000608F0004068
:10557800BAF1FF3F0DDD2A197141CB0130D55FEA41
:10558800510105F001034FEA32020CF1010C1A43F4
:1055980026E0621B66EB010152EA010300F09980E4
:1055A8000023B3EBD15F1BD1B2FA82F3002903F1D8
:1055B800200318BFB1FA81F3A3F10806C3F1280547
:1055C800ACEB060CB140283B22FA05F541EA05018F
:1055D80058BF02FA03F102FA06F258BF00220FE0A0
:1055E80040F2FE739C450BDD40F0E040002140F0A6
:1055F8007F6040EC101B51EC100BBDE8000FF0BDB4
:10560800BCF1010F2DDAACF1010303F03F03C3F144
:10561800200501FA03F622FA05F52E43B3F1200519
:1056280002FA03F358BF02FA05F658BF00233343C2
:10563800CCF1010606F03F0618BF0123C6F120058C
:105648004FF0000CF24001FA05F52A43B6F12005A7
:1056580058BF21FA05F242EA030221FA06F158BFBF
:105668000021D30843EA4173C1F3D30141EA0C5145
:10567800084302F00701042901D9013303E004D1EA
:1056880003F001015B1840F1000040EC103B51ECC5
:10569800100BBDE8000FF0BD85EA0E0404431FD1CE
:1056A8009FED210B4240BCF1010683EA010382EA27
:1056B800060269F58016734055EC104B1A431CBF5F
:1056C8000D46044645EC104B51EC100BBDE8000F9D
:1056D800F0BD9FED130B51EC100BBDE8000FF0BDB2
:1056E80088EA0E06164308D1B0EE410AF0EE610AC8
:1056F80051EC100BBDE8000FF0BD50EA050604D0D0
:1057080052EA08067FF46FAED2E6B0EE410A52EADA
:105718000806F0EE610A7FF4CBAE10401940C5E6EA
:105728000000000000000000000000000000F87FFA
:10573800F0B503AF4DF804BD002421F0004E8446B7
:105748000020C7F6F074DCF1000574EB0E0516D3E3
:1057580023F000455642AC4111D342EA0C0045EA19
:105768000E0630430ED003EA0100B0F1FF3F0DDD15
:10577800BCEB02024FF000009941A8BF01205DF880
:1057880004BBF0BD01205DF804BBF0BDB2EB0C0218
:105798004FF0000073EB0101A8BF01205DF804BBC6
:1057A800F0BD80B56F46BDE88040FFF7FDBDF0B5A0
:1057B80003AF4DF804BD002421F0004E84460020BC
:1057C800C7F6F074DCF1000574EB0E0517D323F06F
:1057D80000455642AC4112D342EA0C0445EA0E0693
:1057E80026430CD003EA0100B0F1FF3F0ADDB2EB1B
:1057F8000C024FF0000073EB0101B8BF01205DF807
:1058080004BBF0BDBCEB02024FF000009941B8BFE9
:1058180001205DF804BBF0BD80B56F46BDE880404F
:1058280000F002B8D4D4D4D4F0B503AF2DE9000FFA
:1058380083B083EA01069B4606F000460296C3F34E
:105848000A568A4640F2FF74C1F30A55B6EB0408BB
:105858004FF00009019669F10006B5EB040C4FF60C
:1058680002046FF31F5B6FF31F5A009569F1000E76
:10587800CFF6FF74BCEB04057EF1FF353DD3B8EBE2
:1058880004044FF0FF35AE4137D3D3024FEACB259E
:1058980045EA5252A3FB00C642F000424AF4801483
:1058A80000214FF0000EE2FB0061A3FB0403851901
:1058B80051EB03004EF10003E2FB0403D902DDE9DA
:1058C8000021114401EB090624D4690041EADC7285
:1058D800590041EAD07340004FEA4C0C40EAD570B9
:1058E800A6F2FF3640F2FE718E421ADC012E41DB31
:1058F8006FF31F5343EA06538DE040F2000921F08D
:105908000044C7F6F079464279EB040617D241F411
:105918000021B3E0A6F2FE362A4640F2FE718E421E
:10592800E4DD029840F0E04040F07F60002140EC68
:10593800101B51EC100B03B0BDE8000FF0BD23F0B5
:105948000041564279EB010609D243F4002040ECAD
:10595800102B51EC100B03B0BDE8000FF0BD84EA2A
:105968000903034374D152EA010077D0029840EA50
:105978000900DBE7C6F101053F2D7DD806F13F019F
:105988006FF01E04A4EB060816F11F0BC5F12006E4
:1059980003FA01FE20FA08F444EA0E0958BF00FA97
:1059A8000BF901962CFA05FA02FA06F62CFA08F415
:1059B8004AEA060E02FA01FA44EA0A040CFA01F667
:1059C80058BF0CFA0BF458BF002600FA01F146EA5A
:1059D800040658BF0021002E18BF0126B5F1200487
:1059E80058BF22FA04FE41EA0E0120FA05F041EA06
:1059F800060C019903FA01F140EA010058BF23FAA5
:105A080004F022FA05F123FA05F358BF002141EA10
:105A1800090258BF002302994FF000460B43DCF1FE
:105A2800000176EB020101D2013007E082EA0601AB
:105A380051EA0C0104D100F00101401843F10003C0
:105A480043EC100B51EC100B03B0BDE8000FF0BD98
:105A580081EA0903134309D1204387D19FED320B13
:105A680051EC100B03B0BDE8000FF0BD50EA040381
:105A780018BF52EA010309D10299002041EC100B2A
:105A880051EC100B03B0BDE8000FF0BD4FF0000C57
:105A98004FF00009B4F5801F1FD2B0FA80F6BAF1B2
:105AA800000F06F1200618BFBAFA8AF606F1350586
:105AB80005F03F05C6F10C09C5F120030AFA05F403
:105AC80020FA03F343EA040AB5F1200358BF00FAA9
